{
  "_format": "hh-sol-artifact-1",
  "contractName": "XAIChainVerifier",
  "sourceName": "contracts/XAIChainVerifier.sol",
  "abi": [
    {
      "anonymous": false,
      "inputs": [
        {
          "indexed": true,
          "internalType": "bytes32",
          "name": "txHash",
          "type": "bytes32"
        },
        {
          "indexed": false,
          "internalType": "string",
          "name": "ipfsHash",
          "type": "string"
        },
        {
          "indexed": false,
          "internalType": "uint8",
          "name": "riskScore",
          "type": "uint8"
        },
        {
          "indexed": false,
          "internalType": "address",
          "name": "auditor",
          "type": "address"
        }
      ],
      "name": "ExplanationStored",
      "type": "event"
    },
    {
      "anonymous": false,
      "inputs": [
        {
          "indexed": true,
          "internalType": "bytes32",
          "name": "txHash",
          "type": "bytes32"
        },
        {
          "indexed": false,
          "internalType": "address",
          "name": "verifier",
          "type": "address"
        }
      ],
      "name": "ExplanationVerified",
      "type": "event"
    },
    {
      "inputs": [
        {
          "internalType": "bytes32",
          "name": "",
          "type": "bytes32"
        }
      ],
      "name": "exists",
      "outputs": [
        {
          "internalType": "bool",
          "name": "",
          "type": "bool"
        }
      ],
      "stateMutability": "view",
      "type": "function"
    },
    {
      "inputs": [
        {
          "internalType": "bytes32",
          "name": "",
          "type": "bytes32"
        }
      ],
      "name": "explanations",
      "outputs": [
        {
          "internalType": "bytes32",
          "name": "txHash",
          "type": "bytes32"
        },
        {
          "internalType": "string",
          "name": "ipfsHash",
          "type": "string"
        },
        {
          "internalType": "uint8",
          "name": "riskScore",
          "type": "uint8"
        },
        {
          "internalType": "uint256",
          "name": "timestamp",
          "type": "uint256"
        },
        {
          "internalType": "address",
          "name": "auditor",
          "type": "address"
        },
        {
          "internalType": "bool",
          "name": "verified",
          "type": "bool"
        }
      ],
      "stateMutability": "view",
      "type": "function"
    },
    {
      "inputs": [
        {
          "internalType": "bytes32",
          "name": "_txHash",
          "type": "bytes32"
        }
      ],
      "name": "getExplanation",
      "outputs": [
        {
          "components": [
            {
              "internalType": "bytes32",
              "name": "txHash",
              "type": "bytes32"
            },
            {
              "internalType": "string",
              "name": "ipfsHash",
              "type": "string"
            },
            {
              "internalType": "uint8",
              "name": "riskScore",
              "type": "uint8"
            },
            {
              "internalType": "uint256",
              "name": "timestamp",
              "type": "uint256"
            },
            {
              "internalType": "address",
              "name": "auditor",
              "type": "address"
            },
            {
              "internalType": "bool",
              "name": "verified",
              "type": "bool"
            }
          ],
          "internalType": "struct XAIChainVerifier.Explanation",
          "name": "",
          "type": "tuple"
        }
      ],
      "stateMutability": "view",
      "type": "function"
    },
    {
      "inputs": [
        {
          "internalType": "bytes32",
          "name": "_txHash",
          "type": "bytes32"
        }
      ],
      "name": "hasExplanation",
      "outputs": [
        {
          "internalType": "bool",
          "name": "",
          "type": "bool"
        }
      ],
      "stateMutability": "view",
      "type": "function"
    },
    {
      "inputs": [
        {
          "internalType": "bytes32",
          "name": "_txHash",
          "type": "bytes32"
        },
        {
          "internalType": "string",
          "name": "_ipfsHash",
          "type": "string"
        },
        {
          "internalType": "uint8",
          "name": "_riskScore",
          "type": "uint8"
        }
      ],
      "name": "storeExplanation",
      "outputs": [
        {
          "internalType": "bool",
          "name": "",
          "type": "bool"
        }
      ],
      "stateMutability": "nonpayable",
      "type": "function"
    },
    {
      "inputs": [
        {
          "internalType": "bytes32",
          "name": "_txHash",
          "type": "bytes32"
        }
      ],
      "name": "verifyExplanation",
      "outputs": [
        {
          "internalType": "bool",
          "name": "",
          "type": "bool"
        }
      ],
      "stateMutability": "nonpayable",
      "type": "function"
    }
  ],
  "bytecode": "0x608060405234801561001057600080fd5b506109c7806100206000396000f3fe608060405234801561001057600080fd5b50600436106100625760003560e01c80632fd863891461006757806338a699a4146100955780633b4771b2146100c857806382539df8146100db578063de861841146100ee578063df02a78e14610111575b600080fd5b61007a610075366004610609565b610131565b60405161008c96959493929190610668565b60405180910390f35b6100b86100a3366004610609565b60016020526000908152604090205460ff1681565b604051901515815260200161008c565b6100b86100d6366004610609565b610201565b6100b86100e93660046106e0565b6102c2565b6100b86100fc366004610609565b60009081526001602052604090205460ff1690565b61012461011f366004610609565b610480565b60405161008c91906107ab565b6000602081905290815260409020805460018201805491929161015390610812565b80601f016020809104026020016040519081016040528092919081815260200182805461017f90610812565b80156101cc5780601f106101a1576101008083540402835291602001916101cc565b820191906000526020600020905b8154815290600101906020018083116101af57829003601f168201915b50505060028401546003850154600490950154939460ff918216949093506001600160a01b0381169250600160a01b90041686565b60008181526001602052604081205460ff166102645760405162461bcd60e51b815260206004820152601a60248201527f4578706c616e6174696f6e20646f6573206e6f7420657869737400000000000060448201526064015b60405180910390fd5b60008281526020818152604091829020600401805460ff60a01b1916600160a01b179055905133815283917fc677266fd1e3108c9b45fb3fd78cf52d65e282b33eaaca3d7ab4474eb9ea0799910160405180910390a2506001919050565b600060648260ff16111561030d5760405162461bcd60e51b8152602060048201526012602482015271496e76616c6964207269736b2073636f726560701b604482015260640161025b565b60008481526001602052604090205460ff161561036c5760405162461bcd60e51b815260206004820152601a60248201527f4578706c616e6174696f6e20616c726561647920657869737473000000000000604482015260640161025b565b6040805160c081018252858152602080820186815260ff861683850152426060840152336080840152600060a084018190528881529182905292902081518155915190919060018201906103c0908261089b565b5060408281015160028301805460ff90921660ff199283161790556060840151600384015560808401516004909301805460a0909501511515600160a01b026001600160a81b03199095166001600160a01b039094169390931793909317909155600086815260016020819052908290208054909316179091555184907fd7083682734764ed05c8c299d059076ad6c9892dc824aade1154e03996852a229061046e9086908690339061095b565b60405180910390a25060019392505050565b6040805160c08101825260008082526060602083018190529282018190529181018290526080810182905260a081019190915260008281526001602052604090205460ff166105115760405162461bcd60e51b815260206004820152601a60248201527f4578706c616e6174696f6e20646f6573206e6f74206578697374000000000000604482015260640161025b565b60008281526020818152604091829020825160c0810190935280548352600181018054919284019161054290610812565b80601f016020809104026020016040519081016040528092919081815260200182805461056e90610812565b80156105bb5780601f10610590576101008083540402835291602001916105bb565b820191906000526020600020905b81548152906001019060200180831161059e57829003601f168201915b5050509183525050600282015460ff9081166020830152600383015460408301526004909201546001600160a01b0381166060830152600160a01b9004909116151560809091015292915050565b60006020828403121561061b57600080fd5b5035919050565b6000815180845260005b818110156106485760208185018101518683018201520161062c565b506000602082860101526020601f19601f83011685010191505092915050565b86815260c06020820152600061068160c0830188610622565b60ff9690961660408301525060608101939093526001600160a01b03919091166080830152151560a09091015292915050565b634e487b7160e01b600052604160045260246000fd5b803560ff811681146106db57600080fd5b919050565b6000806000606084860312156106f557600080fd5b83359250602084013567ffffffffffffffff8082111561071457600080fd5b818601915086601f83011261072857600080fd5b81358181111561073a5761073a6106b4565b604051601f8201601f19908116603f01168101908382118183101715610762576107626106b4565b8160405282815289602084870101111561077b57600080fd5b8260208601602083013760006020848301015280965050505050506107a2604085016106ca565b90509250925092565b60208152815160208201526000602083015160c060408401526107d160e0840182610622565b905060ff60408501511660608401526060840151608084015260018060a01b0360808501511660a084015260a0840151151560c08401528091505092915050565b600181811c9082168061082657607f821691505b60208210810361084657634e487b7160e01b600052602260045260246000fd5b50919050565b601f82111561089657600081815260208120601f850160051c810160208610156108735750805b601f850160051c820191505b818110156108925782815560010161087f565b5050505b505050565b815167ffffffffffffffff8111156108b5576108b56106b4565b6108c9816108c38454610812565b8461084c565b602080601f8311600181146108fe57600084156108e65750858301515b600019600386901b1c1916600185901b178555610892565b600085815260208120601f198616915b8281101561092d5788860151825594840194600190910190840161090e565b508582101561094b5787850151600019600388901b60f8161c191681555b5050505050600190811b01905550565b60608152600061096e6060830186610622565b60ff949094166020830152506001600160a01b039190911660409091015291905056fea26469706673582212200f76a5030eae1daabaa9013da518f7828ab42b5764231db5e19db11cb20d130c64736f6c63430008140033",
  "linkReferences": {},
  "deployedLinkReferences": {}
}